{
  "contractName": "TodoList",
  "abi": [
    {
      "inputs": [],
      "name": "taskCount",
      "outputs": [
        {
          "internalType": "uint256",
          "name": "",
          "type": "uint256"
        }
      ],
      "stateMutability": "view",
      "type": "function",
      "constant": true
    }
  ],
  "bytecode": "0x60806040526000805534801561001457600080fd5b5060b3806100236000396000f3fe6080604052348015600f57600080fd5b506004361060285760003560e01c8063b6cb58a514602d575b600080fd5b60336047565b604051603e91906064565b60405180910390f35b60005481565b6000819050919050565b605e81604d565b82525050565b6000602082019050607760008301846057565b9291505056fea2646970667358221220bab213fce478b854f4bdb1b7ba6d05ec57cadce96e05caf3ca2cdffd5de0ac5264736f6c634300080b0033",
  "immutableReferences": {},
  "source": "pragma solidity ^0.8.1;\r\n\r\ncontract TodoList {\r\n    //--taskCount = Static  Variable taskCount\r\n    //--public =  Read the value taskCount from TodoList\r\n    uint public taskCount = 0;\r\n    \r\n}",
  "sourcePath": "C:\\Users\\hp\\Documents\\todo-blockchain\\contracts\\TodoList.sol",
  "compiler": {
    "name": "solc",
    "version": "0.8.11+commit.d7f03943.Emscripten.clang"
  },
  "schemaVersion": "3.4.4",
  "updatedAt": "2022-02-02T14:43:50.791Z",
  "networkType": "ethereum",
  "devdoc": {
    "kind": "dev",
    "methods": {},
    "version": 1
  },
  "userdoc": {
    "kind": "user",
    "methods": {},
    "version": 1
  }
}